:020000040800F2
:10000000D8080024AD0300089B2D0008892C0008A7
:10001000992D0008BB0400082934000800000000E6
:100020000000000000000000000000009F2D0008FC
:1000300001090008000000009D2D0008A12D000806
:10004000CB030008CB030008CB030008CB03000858
:10005000CB030008CB030008CB030008CB03000848
:10006000CB030008CB030008CB030008CB03000838
:10007000CB030008CB030008BD040008CB03000835
:10008000CB030008CB030008CB030008CB03000818
:10009000CB030008CB030008CB030008CB03000808
:1000A000CB030008CB030008CB030008CB030008F8
:1000B000CB030008CB030008CB030008CB030008E8
:1000C000CB030008CB030008CB030008CB030008D8
:1000D000CB030008CB030008CB030008CB030008C8
:1000E000CB030008CB03000800000000CB0300088E
:1000F000CB030008CB030008CB030008CB030008A8
:10010000CB030008CB030008CB030008CB03000897
:10011000CB030008CB030008CB030008CB03000887
:10012000CB030008CB030008CB030008CB03000877
:10013000CB030008CB030008CB030008CB03000867
:1001400000000000000000000000000000000000AF
:10015000CB030008CB030008CB030008CB03000847
:10016000CB030008CB030008CB030008CB03000837
:10017000CB030008CB030008CB03000800000000FD
:10018000CB030008CB030008CB030008CB03000817
:10019000CB030008CB030008CB030008CB03000807
:1001A000CB030008CB030008CB03000800000000CD
:1001B000CB030008CB030008CB030008CB030008E7
:1001C000CB030008CB030008000000000000000083
:1001D0000000000000000000CB0300080000000049
:1001E000000000000000000000000000000000000F
:1001F0000000000000000000CB030008CB03000853
:10020000CB030008CB03000800000000CB0300086C
:10021000CB030008CB030008CB030008CB03000886
:10022000CB03000800000000CB0300080000000022
:10023000CB030008CB03000800000000CB0300083C
:10024000CB030008CB030008CB030008CB03000856
:10025000CB030008CB030008CB030008CB03000846
:10026000CB030008CB030008CB030008CB03000836
:10027000CB030008CB030008CB03000800000000FC
:10028000CB030008CB030008CB030008CB03000816
:1002900000000000CB030008CB03000800000000B2
:1002A00000000000CB030008CB030008CB030008CC
:1002B000CB030008CB030008CB030008CB030008E6
:1002C000CB030008CB030008CB03000800F002F8C2
:1002D00000F05CF80AA090E8000C82448344AAF184
:1002E0000107DA4501D100F051F8AFF2090EBAE882
:1002F0000F0013F0010F18BFFB1A43F0010318475A
:1003000038320000583200000A444FF0000C10F858
:10031000013B13F0070408BF10F8014B1D1108BF83
:1003200010F8015B641E05D010F8016B641E01F823
:10033000016BF9D113F0080F1EBF10F8014BAD1C73
:100340000C1B09D16D1E58BF01F801CBFAD505E091
:1003500014F8016B01F8016B6D1EF9D59142D6D3EB
:10036000704700000023002400250026103A28BF13
:1003700078C1FBD8520728BF30C148BF0B60704717
:100380001FB503F0C7F81FBD10B510BD00F05CF835
:100390001146FFF7F5FF03F059F800F07AF803B4BF
:1003A000FFF7F2FF03BC00F081F800000A48804725
:1003B0000A4880470A480047FEE7FEE7FEE7FEE7F7
:1003C000FEE7FEE7FEE7FEE7FEE7FEE70548064933
:1003D000064A074B7047000009090008392E00083B
:1003E000CD020008D8020024D8080024D804002434
:1003F000D80400244FF0000200B5134694469646F8
:10040000203922BFA0E80C50A0E80C50B1F1200127
:10041000BFF4F7AF090728BFA0E80C5048BF0CC0D5
:100420005DF804EB890028BF40F8042B08BF704733
:1004300048BF20F8022B11F0804F18BF00F8012BA5
:100440007047704770477047754600F02BF8AE460E
:1004500005006946534620F00700854618B020B5D0
:10046000FFF7B4FFBDE820404FF000064FF0000753
:100470004FF000084FF0000B21F00701AC46ACE84C
:10048000C009ACE8C009ACE8C009ACE8C0098D46B9
:10049000704710B50446AFF300802046BDE8104019
:1004A000FFF77DBF004870477802002401491820FB
:1004B000ABBEFEE7260002007047FEE7014800F0F1
:1004C00073BB000000020024294A016891423AD01F
:1004D000274A1832914236D0254A3032914232D0E2
:1004E000234A483291422ED0214A603291422AD08A
:1004F0001F4A7832914226D01D4A9032914222D032
:100500001B4AA83291421ED01A4A91421BD0194A66
:100510001832914217D0174A3032914213D0154AFF
:10052000483291420FD0134A603291420BD0114AA7
:100530007832914207D00F4A9032914203D00D4A4F
:10054000A832914211D1CAB21823103AB2FBF3F289
:100550006FF30901032A02F00703074AD25CC26560
:1005600000D9091D81650846704721F0FF01F9E7B0
:1005700010000240100402401E35000830B5224A27
:10058000012301689142CAB21BD01F4C1434A1420E
:1005900017D01D4C2834A14213D01B4C3C34A1422F
:1005A0000FD0194C5034A1420BD0174C6434A142E7
:1005B00007D0154C7834A14203D0134C8C34A1429F
:1005C0000CD11421114C083AB2FBF1F10F4A8032E0
:1005D00001F01F0504EB8101AB4010E00C4D182425
:1005E000103A0D44B2FBF4F1A82D00D80831094AA5
:1005F00001F01F0402EB8101064AA3408032603003
:1006000080E80E0030BD000008540258005802581F
:10061000F0FBFDBF0008024010B50279531E072B06
:100620002DD8174C0168A1421BD0154C1434A1429F
:1006300017D0134C2834A14213D0114C3C34A142A2
:100640000FD00F4C5034A1420BD00D4C6434A1425A
:1006500007D00B4C7834A14203D0094C8C34A14212
:1006600003D10849074C443102E00749064C4431A4
:1006700004EB8202C0E91B2101219940416710BDB2
:1006800008540258FC580258FC08024010B583690F
:100690004FF0C074826A0146002053B1B3F5005F89
:1006A00015D072B1012A0CD0022A0AD0032A09D12E
:1006B00004E01AB1012A06D0022A03D1C96AC9018D
:1006C00000D5012010BDC96AA142FAD010BD002A90
:1006D000F7D0012AF2D0022AF3D0032AF3D010BDBA
:1006E0002DE9F04F804E804FDFF8FC911836DFF88F
:1006F000F8A148370468856D0AF1300ADFF8ECB1DB
:100700004C45DFF8ECC1DFF8ECE16DD0B4426BD0C2
:10071000544569D0BC4267D0DFF8D081A8F11808F1
:10072000444561D05C455FD064455DD074455BD085
:10073000DFF8C481444557D0DFF8BC8108F11808C0
:10074000444551D0DFF8B08108F1300844454BD022
:10075000DFF8A48108F14808444545D0DFF89881C6
:1007600008F1600844453FD0DFF88C8108F1780833
:10077000444539D0DFF8808108F19008444533D0F2
:10078000DFF8748108F1A80844452DD0DFF86C81AA
:10079000444529D0DFF8648108F11408444523D08A
:1007A000DFF8588108F1280844451DD0DFF84C8156
:1007B00008F13C08444517D0DFF8408108F15008A3
:1007C000444511D0DFF8348108F1640844450BD06A
:1007D000DFF8288108F17808444505D0DFF81C814E
:1007E00008F18C08444509D1D0E91948C4F80480BF
:1007F000C46E1CB1D0E91C48C4F8048004684C45A0
:100800002ED0B4422CD054452AD0BC4228D0374EEA
:10081000183EB44224D05C4522D0644520D07445B3
:100820001ED0354EB4421BD0334E1836B44217D0CA
:10083000314E3036B44213D02F4E4836B4420FD02A
:100840002D4E6036B4420BD02B4E7836B44207D0D2
:10085000294E9036B44203D0274EA836B44215D163
:1008600090F85C603F2406F01F06B440AC6004685A
:10087000256825F4802525602EE09A600068C16017
:10088000BDE8F08F99600068C260F9E71B4EB44282
:100890001BD01A4E1436B44217D0184E2836B44224
:1008A00013D0164E3C36B4420FD0144E5036B442DC
:1008B0000BD0124E6436B44207D0104E7836B44294
:1008C00003D00E4E8C36B442DAD190F85C6001242D
:1008D00006F01F06B4406C60046863608368402BB8
:1008E0000368CFD1C9E70000100002408800024031
:1008F000A0000240B8000240100402400854025810
:10090000704772B6FEE700000548054908390268DD
:1009100042F00202026008688004FCD570470000C3
:100920000C4802582DE9F05F28B190F835100229E3
:1009300004D0802141650120BDE8F09F904C904B90
:100940000168183C18338E4ADFF83C92A1428D4C66
:10095000DFF838E28E4FDFF83CB2DFF83CA28F4D73
:100960008F4E31D091422FD099422DD0A1422BD021
:10097000494529D0714527D0B94225D0DFF810C2AA
:100980000CF1180C61451FD0DFF808C2ACF1600C07
:10099000614519D0DFF8FCC1ACF1480C614513D0BA
:1009A000DFF8F0C1ACF1300C61450DD0DFF8E4C1E7
:1009B000ACF1180C614507D0594505D0514503D01D
:1009C000A94201D0B1422CD1DFF8B4C14FF00408E4
:1009D00080F83580ACF1180C61451DD091421BD0D8
:1009E000994219D0A14217D0494515D0714513D06D
:1009F000B94211D06648183081420DD06548603840
:100A0000814209D063484838814205D06148303876
:100A1000814201D05F481838086820F00100086062
:100A2000ABE0D1F800C02CF00E08DFF854C1C1F8DB
:100A30000080ACF1180C0168614527D0914225D0A7
:100A4000994223D0A14221D049451FD071451DD0E4
:100A5000B9421BD0DFF838C10CF1180C614515D034
:100A6000DFF830C1ACF1600C61450FD0DFF824C174
:100A7000ACF1480C614509D0DFF818C1ACF1300C7D
:100A8000614503D0DFF80CC1ACF1180CD1F800C0FF
:100A90002CF0010CC1F800C0DFF8E4804FF0010C2D
:100AA0000168A8F11808414546D0914244D09942C6
:100AB00042D0A14240D049453ED071453CD0B942D8
:100AC0003AD0334A1832914236D0324A603A914293
:100AD00032D0304A483A91422ED02E4A303A914292
:100AE0002AD02C4A183A914226D0594524D0514553
:100AF00022D0A94220D0B1421ED02A4A91421BD016
:100B0000284A1432914217D0264A2832914213D0F3
:100B1000244A3C3291420FD0224A503291420BD0AB
:100B2000204A6432914207D01E4A7832914203D063
:100B30001C4A8C32914218D1016E0A6822F48072EC
:100B40000A6090F85C20816D02F01F020CFA02F23C
:100B50004A60D0E919124A60C16E31B10A6822F4C4
:100B600080720A60D0E91C124A600022016D80F890
:100B700035C080F8342001B188470020DCE6000051
:100B800028000240580002407000024088000240E5
:100B9000A00002407004024088040240A004024009
:100BA000B8040240085402582DE9FC5F0446F74E91
:100BB0000020DFF8D88300904FF41652F44808F173
:100BC0001808A56DDFF8C493DFF8C0A3016809F128
:100BD000300920680AF1480AB1FBF2F1B0420191F4
:100BE0002F68D5F800C0DFF8ACB335D04146884255
:100BF00032D0484530D050452ED058452CD0E5490C
:100C00001831884228D0E3493031884224D0E14964
:100C10004831884220D0E04988421DD0DE49183151
:100C2000884219D0DC493031884215D0DA49483140
:100C3000884211D0DFF860E30EF1600E70450BD0F2
:100C4000D54A7832904207D0D34B9033984203D0A4
:100C5000D149A83188427DD194F85C20082102F066
:100C60001F0201FA02F23A424AD0B04232D0404565
:100C700030D048452ED050452CD058452AD0C54AB2
:100C80001832904226D0C34A3032904222D0C14A14
:100C9000483290421ED0C04A90421BD0BE4A183201
:100CA000904217D0BC4A3032904213D0BA4A4832F0
:100CB00090420FD0B84A603290420BD0B64A783298
:100CC000904207D0B44A9032904203D0B24AA83240
:100CD000904203D1026802F0040202E0026802F0CE
:100CE00008026AB1026822F00402026094F85C0013
:100CF00000F01F008140A960606D40F00100606558
:100D000094F85C00012100F01F008140394240D07E
:100D10002068B04234D0404532D0484530D05045AC
:100D20002ED058452CD09B4A1832904228D0994A50
:100D30003032904224D0974A4832904220D0964A8E
:100D400090421DD0944A1832904219D0924A3032C3
:100D5000904200E0AFE113D08F4A483290420FD06A
:100D60008D4A603290420BD08B4A7832904207D045
:100D7000894A9032904203D0874AA83290427DD16E
:100D8000406910F0800F04D0A960606D40F002004F
:100D9000606594F85C00042100F01F008140394236
:100DA0003ED02068B04232D0404530D048452ED0A9
:100DB00050452CD058452AD0764A1832904226D039
:100DC000744A3032904222D0724A483290421ED049
:100DD000714A90421BD0704A1832904217D06E4A26
:100DE0003032904213D06C4A483290420FD06A4A57
:100DF000603290420BD0684A7832904207D0664AFF
:100E00009032904203D0644AA83290424ED100689A
:100E100010F0020F04D0A960606D40F0040060651E
:100E200094F85C00102100F01F008140394258D036
:100E30002068B04234D0404532D0484530D050458B
:100E40002ED058452CD0534A1832904228D0514ABF
:100E50003032904224D04F4A4832904220D04E4AFD
:100E600090421DD04C4A1832904219D04A4A303232
:100E7000904215D0484A4832904200E014E00FD02A
:100E8000454A603290420BD0434A7832904207D0B4
:100E9000414A9032904203D03F4AA832904207D153
:100EA000006800F0080006E0006872E70068B7E735
:100EB000006800F00400A0B1A9602068016849033F
:100EC00004D50068000308D5A16C07E00168C905D6
:100ED00003D4016821F008010160216C09B12046AA
:100EE000884794F85C00202100F01F0081403942BF
:100EF00079D02068B04232D0404530D048452ED01D
:100F000050452CD058452AD0224A1832904226D03B
:100F1000204A3032904222D01E4A483290421ED09F
:100F20001D4A90421BD01C4A1832904217D01A4AD0
:100F30003032904213D0184A483290420FD0164AAD
:100F4000603290420BD0144A7832904207D0124A55
:100F50009032904203D0104AA832904203D10068E8
:100F600000F0100002E0006800F00200B0B3A960D9
:100F700094F835000428206801680FD049037ED515
:100F8000006800032BD4616C2AE0000010000240CE
:100F9000AC010024700002401004024021F0160150
:100FA00001602068416921F080014161206C08B92D
:100FB000A06C20B12068016821F00801016094F85C
:100FC0005C303F21012003F01F0300229940A960FB
:100FD00084F8350084F83420216D65E003E0E16B8E
:100FE00009B120468847606D00287DD0606DC0073C
:100FF00059D02068042184F83510B0422BD04045E8
:1010000029D0484527D0504525D0584523D09D4963
:10101000884220D09B49183188421CD099493031F0
:10102000884218D09849884215D09749183188428B
:1010300011D09549303188420DD0934948318842CA
:1010400009D091496031884205D08F497831884272
:1010500001D08D499031016821F0010101602068C3
:101060000099019A491C0091914202D80168C90770
:10107000F6D10068C00710D003200FE0FFE7016839
:10108000C905ACD403680121002223F010030360DA
:1010900084F8351084F83420A1E7012084F8350065
:1010A000002084F83400E16C00291DD002B02046F5
:1010B000BDE8F05F0847754988421DD07349143177
:1010C000884219D071492831884215D06F493C3186
:1010D000884211D06D49503188420DD06B4964313E
:1010E000884209D0694900E084E07831884203D021
:1010F00066498C3188427DD194F85C800427016870
:1011000008F01F0807FA08F717EA0C0F009746D0F7
:101110004F0744D500980F04686003D5C8033CD43A
:10112000A16CC1E7880638D42068B0422DD055495B
:101130006039884229D0484527D0504525D05845A8
:1011400023D05049884220D04E49183188421CD0C3
:101150004C493031884218D04B49884215D04A4911
:101160001831884211D04849303188420DD0464963
:101170004831884209D0704507D0904205D0984246
:1011800003D04149A831884203D1016821F0080108
:1011900002E0016821F004010160216C84E702276C
:1011A00007FA08F717EA0C0F00974ED08F074CD5B7
:1011B00000980F04686003D5C80344D4616C73E7DA
:1011C000880640D42068B0422FD02E49603988422A
:1011D0002BD0484529D0504527D0584525D02949FE
:1011E000884222D02749183188421ED02549303103
:1011F000884200E044E018D02349884215D02249B3
:101200001831884211D02049303188420DD01E4912
:101210004831884209D0704507D0904205D09842A5
:1012200003D01949A831884203D1016821F0140183
:1012300002E0016821F00A010160012184F8351003
:10124000002084F83400E16B2EE7082202FA08F24D
:1012500012EA0C0F14D0090712D5016821F00E0113
:10126000016094F85C100120002201F01F0100FAD7
:1012700001F16960606584F8350084F8342012E774
:10128000BDE8FC9F88000240100402400854025848
:101290002DE9F05F044600F04DFC002C07467DD0A0
:1012A000E24E022120684FF00308DFF884934FF0EC
:1012B0000005DFF880A3B042DFF87CB334D0DB4A0E
:1012C0001832904230D048452ED050452CD0584549
:1012D0002AD0D94A1832904226D0D74A303290428A
:1012E00022D0D54A483290421ED0D44A90421BD0D8
:1012F000D24A1832904217D0D04A3032904213D09E
:10130000CE4A483290420FD0CC4A603290420BD045
:10131000CA4A7832904207D0C84A9032904203D0ED
:10132000C64AA83290427DD184F83510B04284F884
:1013300034502ED0BD49183188422AD0484528D093
:10134000504526D0584524D0BB491831884220D07A
:10135000B949303188421CD0B7494831884218D049
:10136000B649884215D0B5491831884211D0B349E1
:10137000303188420DD0B1494831884209D0AF4957
:101380006031884205D0AD497831884201D0AB49FF
:101390009031016821F00101016008E025E100BF02
:1013A00000F0C8FBC01B052801D920211AE12068E4
:1013B0000068C007F4D1D4E902032168103418434F
:1013C0008E4694E88410D4E9033809683A43104300
:1013D0009B4A40EA0C00676918431140103C40EA00
:1013E0000800042F40EA010003D1D4E90B12114395
:1013F00008436168A1F12902052A0BD9163A032A8C
:1014000008D9083A012A05D9083A032A02D97439B9
:10141000032901D840F48010CEF800002068676AE4
:10142000406900E020E0042F20F0070047EA0007B1
:101430000DD1D4E90A01074349B12046FFF726F947
:1014400028B140206065012184F83510CDE0206886
:1014500047612046FFF738F894F85C203F2102F0FE
:101460001F029140816055E0764A90421BD0754B37
:101470001433984217D0734B2833984213D0714BD2
:101480003C3398420FD06F4B503398420BD06D4B8A
:101490006433984207D06B4B7833984203D0694B42
:1014A0008C3398427ED184F8351084F83450664BE2
:1014B0000168A26801EA030E402A74D0802A73D022
:1014C0005FF00002D4E90378D4E9053142EAD7029B
:1014D00042EAD8085B4AD4E9077C48EAD30848EADC
:1014E000D10141EAD701524241EA1C11142341EAD9
:1014F0000E01016020681044B0FBF3F08000E0654D
:101500002046FEF7E1FF94F85C20012102F01F0263
:10151000914041602068B04257D044491831884218
:1015200053D0484551D050454FD058454DD04249F1
:101530001831884249D040493031884245D03E492F
:101540004831884241D03D4988423ED03B4918311C
:1015500088423AD039493031884236D0374948310B
:10156000884232D03549603188422ED033497831B3
:1015700088422AD031499031884226D02F49A8315B
:10158000884222D02F4988421FD02E4914318842E8
:101590001BD02C492831884217D02A493C31884237
:1015A00013D002E01DE017E018E0264950318842D0
:1015B0000BD024496431884207D0224978318842CF
:1015C00003D020498C31884229D12046FEF7D6FF2E
:1015D000A06880280CD00CE0102273E74FF4804202
:1015E00070E74021616584F835800120BDE8F09FF7
:1015F0006560216E20790860D4E919014160606856
:10160000401E072808D82046FFF706F8E06E056060
:10161000D4E91C01416002E0E566256765670120A9
:10162000656584F835000020E0E700001000024006
:101630004000024058000240700002401004024086
:101640003F8010FE085402580F00FEFF2DE9F84FAE
:1016500004008C464FF00000009014D094F8340041
:10166000012812D094F835500120002184F834006C
:10167000012D0CD0C00260650120009084F8341068
:101680000098BDE8F88F0120FBE70220F9E78C4DB8
:101690000226206884F83560A8428A4D61658A4E2A
:1016A0008A4FDFF82C82DFF82C92DFF82CA2DFF8CB
:1016B0002CB226D0A84224D0B04222D0B84220D0AA
:1016C00040451ED048451CD050451AD0584518D02A
:1016D0008349884215D082491831884211D0804907
:1016E000303188420DD07E494831884209D07C494A
:1016F0006031884205D07A497831884201D07849F2
:101700009031016821F00101016061462046FEF739
:10171000E7FF6B49206888422CD0A8422AD0B0420B
:1017200028D0B84226D0404524D0484522D0504544
:1017300020D058451ED06A4A90421BD0684A1832C1
:10174000904217D0664A3032904213D0644A4832F1
:1017500090420FD0624A603290420BD0604A783299
:10176000904207D05E4A9032904203D05C4AA83241
:1017700090420CD1026822F01E0242F01602026072
:10178000206C88B12068026842F008020BE0026811
:1017900022F00E0242F00A020260206C20B12068A2
:1017A000026842F004020260206888424BD0A842DE
:1017B00049D0B04247D0B84245D0404543D04845D3
:1017C00041D050453FD058453DD0454A90423AD04F
:1017D000434A1832904236D0414A3032904232D099
:1017E0003F4A483290422ED03D4A603290422AD041
:1017F0003B4A7832904226D0394A9032904222D0E9
:10180000374AA83290421ED0364A90421BD0354A01
:101810001432904217D0334A2832904213D0314AC2
:101820003C3290420FD02F4A503290420BD02D4A7A
:101830006432904207D02B4A7832904203D0294A32
:101840008C3290420DD1206E0268D20303D502681B
:1018500042F480720260E06E18B1026842F4807255
:1018600002602068884226D0A84224D0B04222D00C
:10187000B84220D040451ED048451CD050451AD013
:10188000584518D01649884215D015491831884254
:1018900011D01349303188420DD011494831884266
:1018A00009D00F496031884205D00D49783188420E
:1018B00001D00B499031016841F001010160DFE680
:1018C0001000024028000240400002405800024040
:1018D0007000024088000240A0000240B8000240B0
:1018E000100402400854025870B5044600F022F972
:1018F0000546601C02D004480078044400F01AF940
:10190000401BA042FAD370BDA00100242DE9F84F7E
:1019100003247A4D00234FF001094FF0B04B4FF0F4
:101920000F0AE4E009FA03F6324078D00F7907F0A5
:101930000307012F01D0022F1AD187684FEA430E07
:10194000D1F80CC004FA0EF827EA08070CFA0EFCCE
:101950004CEA070CC0F808C0476891F804C0B743C8
:10196000CCF3001C0CFA03FC4CEA070CC0F804C0D2
:101970000E79F643B6070BD0C6684FEA43088F6866
:1019800004FA08FC26EA0C0607FA08F73743C76092
:101990000E7906F00306022E12D1DE080F694FEA17
:1019A000437C00EB8606B646366A4FEADC6C0AFAE0
:1019B0000CF807FA0CF726EA08063743CEF8207031
:1019C0000F7906684FEA430807F0030704FA08FC9A
:1019D00007FA08F726EA0C06374307604E6816F444
:1019E000403F1CD0464E376847F0020737603668E4
:1019F0009F0706F00206009623F0030606F1B046A4
:101A0000B6463F0FD6F80864DFF8F8800AFA07FCFC
:101A1000404526EA0C0603D14FF0000C3AE065E0A1
:101A2000DFF8E4C0604502D14FF0010C32E0DFF88E
:101A3000DCC0604502D14FF0020C2BE0DFF8D0C0D3
:101A4000604502D14FF0030C24E0DFF8C8C06045C8
:101A500002D14FF0040C1DE0DFF8BCC0604502D19C
:101A60004FF0050C16E0DFF8B4C0604502D14FF02E
:101A7000060C0FE0DFF8A8C0604502D14FF0070C5C
:101A800008E0DFF8A0C0604502D14FF0090C01E08A
:101A90004FF00A0C0CFA07FC4CEA060CCEF808C40E
:101AA0004F68DBF80060FF0226EA020600D5164305
:101AB0005F46CBF80060D1F804C0DBF804605FEA51
:101AC0008C2C26EA020600D516437E606E684F68AD
:101AD00026EA0206BF0300D516436E602E684F68E3
:101AE00026EA0206FF0300D516432E605B1C0A6837
:101AF00032FA03F67FF416AFBDE8F88F8000005885
:101B0000F444025800000258000402580008025829
:101B1000000C025800100258001402580018025815
:101B2000001C0258002402580AB181617047090460
:101B3000FBE700000148806870470000A001002416
:101B4000024881680278114481607047A001002436
:101B5000032010B500F0D4F800F03CFA0F4A104909
:101B600014681368C4F3032203F00F038A5CC95C92
:101B700002F01F0201F01F01D0400A4A20FA01F1D1
:101B80001160094908600F2000F010F808B1012029
:101B900010BD00F079F8002010BD00001844025874
:101BA00026350008B0010024AC01002470B50D4DAD
:101BB00004462878A0B14FF47A71B1FBF0F00A49DD
:101BC0000968B1FBF0F000F034FD48B9102C07D2E1
:101BD00000222146501E00F073F800206C6070BD9A
:101BE000012070BDA0010024AC010024154BF0B50C
:101BF000083B427813491A600B680A1F23F001035F
:101C00000B6043681360057BC67A827A437B2D079D
:101C1000847B45EA0665C77B90F809C0067A90F890
:101C200000E045EAC24040EA834040EA444040EADE
:101C3000074040EA0C2040EA460040EA0E000860F7
:101C4000F0BD0000A0ED00E0BFF35F8F044800216D
:101C50000368034A23F480330360703211607047D5
:101C600024ED00E0074A40F00100064970321060A0
:101C7000086840F480300860BFF34F8FBFF36F8F68
:101C80007047000024ED00E0054808B5016841F008
:101C900002010160006800F00200009008BD000031
:101CA000F4440258002809DB410900F01F028900B2
:101CB000012001F1E0219040C1F8000170470000CF
:101CC0000E4BF0B41B680D46C3F30223C3F10706A5
:101CD000042E00D90426191D072901D2002300E093
:101CE000DB1E012404FA06F19C40491E2940641EB3
:101CF000994014402143F0BC01F097BB0CED00E08B
:101D0000064900F0070210B54FF6FF040868044BBF
:101D1000204040EA02201843086010BD0CED00E0AE
:101D20000000FA05134970B50A68D243520705D579
:101D3000096801F00701814213D118E00A6822F016
:101D4000070202430A60FFF7F5FE0A4D4FF47A7668
:101D50000446083D07E000BFFFF7ECFE001BB04261
:101D600001D9012070BD2868C0438004F4D400204C
:101D700070BD00000C4802582DE9F05F04000F46CA
:101D80007ED0DFF83882D8F8000000F00F00B842AB
:101D90000CD2D8F8001021F00F013943C8F8001018
:101DA000D8F8000000F00F00B84269D12078844DC7
:101DB00040070AD52069296801F07001884204D9DA
:101DC000296821F070010143296020787C4E361D7E
:101DD00000070AD56069316801F07001884204D9B2
:101DE000316821F07001014331602078C0060AD5C6
:101DF000A069316801F4E061884204D9316821F4B6
:101E0000E061014331602078DFF8B4B180060BF166
:101E1000080B0CD5E1695846DBF8002002F070028F
:101E2000914204D9026822F070020A4302602078CD
:101E300080070AD5E068296801F00F01884204D9BB
:101E4000296821F00F01014329602078C0073ED0A6
:101E50005B49A2682868183920F470601043286034
:101E60006068022818D0032819D00968012819D001
:101E7000490700294ADADFF848A1AAF1080A00E078
:101E800044E0DAF8002022F007020243CAF80020FA
:101E9000FFF750FE814612E009688903E9E7096807
:101EA0008901E6E7C905E4E7FFF744FEA0EB090175
:101EB00041F28830814202D90320BDE8F09F616879
:101EC000DAF8000000F03800B0EBC10FECD1207858
:101ED00080070AD5E068296801F00F01884204D222
:101EE000296821F00F0101432960D8F8001040460D
:101EF00001F00F01B9420BD9016821F00F013943FC
:101F00000160006800F00F00B84201D00120D4E762
:101F1000207840070AD52069296801F070018842BD
:101F200004D2296821F0700101432960207800075C
:101F30000AD56069316801F07001884204D23168C5
:101F400021F07001014331602078C0060AD5A069F4
:101F5000316801F4E061884204D2316821F4E06123
:101F600001433160207880060CD5E1695846DBF8E2
:101F7000002002F07002914204D2026822F0700246
:101F80000A43026000F026F80E492A682B68C2F363
:101F9000032203F00F038A5CC95C02F01F0201F008
:101FA0001F01D040084A20FA01F11160074908607A
:101FB00007480068BDE8F05FFFF7F8BD0020005259
:101FC0001844025826350008B0010024AC01002452
:101FD000A4010024454970B545480968434B103BAE
:101FE00011F0380208D00111082A03D0102A0BD0B2
:101FF000182A0BD0084670BD19688906FBD51968E8
:10200000C1F3C101C84070BD3A4870BD3749374D72
:1020100018310C1D24350A68096826682D6802F0FD
:10202000030406F00102C1F30511C5F3CC0515FB4D
:1020300002F200EE102AB8EE400AE9B32F4ADFEDB3
:102040002E0AB7EE001A6CB1DFED2D1A012C01D06B
:10205000022C43D002EE101A1068F8EE422A81EEEC
:10206000A22A1EE01C68A40611D51B6801EE901A76
:102070001168C3F3C103F8EE612AD84001EE900A5B
:10208000C1F30800F8EE611A81EEA22A0BE001EE1E
:10209000901ADFED1C2A00BFF8EE611A106882EE7C
:1020A000A12AC0F3080001EE900AF8EE611A40EE92
:1020B000201A31EE810A00E015E022EE000A1068D5
:1020C000C0F34620401C00EE900AF8EE600A80EE55
:1020D000201ABCEEC10A10EE100A70BD01EE901A73
:1020E000DFED092AD8E7002070BD00001044025837
:1020F0000090D00300366E010000003930440258D1
:102100000024744A0024744C001BB74B2DE9F05F87
:1021100004007DD0FF4F2078FE4D1837DFF8F483A0
:10212000103DC00748D0D8F80000396800F03800EA
:10213000102815D0182803D101F0030002280FD071
:102140006068B0F5803F12D010B1B0F5A02F18D064
:10215000286820F480302860286820F4802009E076
:102160002868800328D560680028D2D024E0286839
:1021700040F480302860606888B1FFF7DBFC0646D9
:1021800009E0286840F480202860F0E7FFF7D2FCDF
:10219000801B64287ED828688003F7D50CE0FFF701
:1021A000C9FC064605E000BFFFF7C4FC801B64289D
:1021B000F0D828688003F7D42078800756D5D8F85F
:1021C0000000DFF85093396810F03800A9F10C09CD
:1021D0000ED0182801D188070AD0E068A8B3296872
:1021E00021F0190101432960FFF7A4FC064628E00D
:1021F0002868400702D5E06800288AD0E16828688E
:1022000020F0190008432860FFF794FC064606E01A
:10221000D2E000BFFFF78EFC801B0228BAD82868E6
:102220004007F7D5217CD9F8002022F0FE4242EA8F
:102230000161C9F8001019E0FFF77CFC801B02283F
:10224000A8D828684007F7D5ECE7FFE7286820F012
:1022500001002860FFF76EFC064604E0FFF76AFC09
:10226000801B022896D828684007F7D42078C0063B
:1022700046D5D8F80000DFF89C92396800F03800A5
:10228000A9F10409082812D0182805D101F003008B
:10229000012800E0CEE00AD0E0690028286820D0BC
:1022A00040F080002860FFF745FC064615E02868EE
:1022B000C00502D5E06980287ED194F82010D9F8B5
:1022C000002022F07C5242EA0161C9F8001017E0B8
:1022D000FFF730FC801B0228A0D82868C005F7D57E
:1022E000EBE720F080002860FFF724FC064604E0BE
:1022F000FFF720FC801B022890D82868C005F7D47F
:102300002078000729D58348616964300029814617
:10231000016811D041F001010160FFF70BFC064696
:1023200005E000BFFFF706FC801B022888D8D9F81B
:1023300000008007F6D510E021F001010160FFF7F1
:10234000F9FB064605E000BFFFF7F4FB801B0228FF
:1023500070D8D9F800008007F6D42078800623D5FD
:10236000A0690028286810D040F480502860FFF74A
:10237000E1FB064605E000BFFFF7DCFB801B0228FF
:1023800058D828688004F7D50EE020F480502860E3
:10239000FFF7D0FB064604E0FFF7CCFB801B0228CA
:1023A00048D828688004F7D42078400751D5DFF852
:1023B0006891D9F8001000E015E141F48071C9F886
:1023C0000010FFF7B7FB064605E000BFFFF7B2FBC2
:1023D000801B64282ED8D9F80000C005F6D54D4ED4
:1023E000A068603601280AD008B1052813D03068EB
:1023F00020F001003060306820F0040002E0306816
:1024000040F001003060A06841F2883A98B1FFF7CF
:1024100091FB81460AE0306840F004003060EEE74E
:10242000FFF788FBA0EB0901514503D8306880070E
:10243000F6D50EE072E0FFF77DFB814606E000BFB7
:10244000FFF778FBA0EB0901514567D8306880079A
:10245000F6D4606A00287CD0DFF8B8A0D8F8001065
:102460000AF1200A4FF6F87B0AF10408C1F3C20111
:102470000329AAF104096DD00228286820F0807091
:10248000286003D0FFF756FB044681E0FFF752FBBC
:10249000064604E0FFF74EFB801B022875D828682B
:1024A0008001F7D4E26A40F2F331386854F8283FEB
:1024B000884340EA021018433860217B4FF4FE0C39
:1024C00022894FF0FE47208A4902267D521E401E77
:1024D000A1F5007189B2C2F308021143761E0CEA1D
:1024E00000400143484607EA06621143CAF800105B
:1024F000D9F8001021F00101C9F80010D8F8003017
:10250000266A23EA0B0343EAC601C8F80010D9F88B
:10251000001004E0104402580048025835E0A26957
:1025200021F00C011143C9F800100168E26921F0A3
:10253000020111430160016841F4803101600168CA
:1025400041F400310160016841F4802101600168BB
:1025500001E06CE020E041F001010160286840F0FA
:1025600080702860FFF7E6FA044604E0FFF7E2FA1D
:10257000001B022809D828688001F7D557E000BF62
:10258000FFF7D8FA001B022802D90320BDE8F09F0C
:1025900028688001F4D44AE039680128DAF800009C
:1025A00021D0A26A01F0030393421CD1E26AC1F375
:1025B00005118A4217D1216BC0F30802491E8A42D5
:1025C00011D1616BC0F34622491E91420BD1A16B20
:1025D000C0F30642491E914205D1E16BC0F306608B
:1025E000491E814201D00120D0E7A16C4646D8F8AF
:1025F0000000C0F3CC00814219D0D9F800004D464C
:1026000020F00100C9F80000FFF794FA4FEA000734
:10261000FFF790FAB842FBD0A26C306820EA0B00BA
:1026200040EAC2003060286840F0010028600020C5
:10263000ACE7401EB0F1807F10B501D3012010BD82
:102640004FF0E02460610F21601700F0EEFE0020E3
:10265000A0610721216110BDF0B590F83C20012A4E
:1026600041D0224E012480F83C40022280F83D20D7
:1026700002681F4D5368B242D2F808C001D0AA4286
:1026800003D14F6823F470033B430F6823F07003BA
:102690001F4357600268B24219D0B2F1804F16D082
:1026A000144B9A4213D0144B9A4210D0134B9A42B7
:1026B0000DD0AA420BD0124B9A4208D0114B9A422D
:1026C00005D0114B9A4202D0104B9A4204D189682E
:1026D0002CF0800319439160002180F83D4080F880
:1026E0003C100846F0BD0220F0BD00000000014093
:1026F000000401400004004000080040000C0040BD
:10270000001800400040014000E0004000E40040AC
:102710007047000010B586B0044614216846FDF7E6
:1027200069FE0D492068884214D10C48016841F0C7
:102730000101016000680021802200F00100059085
:1027400002200092CDE90101CDE903100448694659
:10275000FFF7DCF806B010BD00040040E04402586A
:102760000000025870B5044690F83C0000260D4663
:1027700001280BD0012084F83C000C2A4AD007DC49
:1027800082B1042A20D0082A06D131E0022070BD8F
:10279000102A53D0142A63D00126002084F83C006C
:1027A000304670BD206800F0A5FC2068816941F0CA
:1027B000080181612068816921F00401816120683C
:1027C0002A698169114311E0206800F0E5FC206866
:1027D000816941F4006181612068816921F480612F
:1027E000816120682969826942EA01218161D4E717
:1027F000206800F01DFD2068C16941F00801C16139
:102800002068C16921F00401C16120682A69C16999
:10281000114311E0206800F057FD2068C16941F4C0
:102820000061C1612068C16921F48061C1612068D3
:102830002969C26942EA0121C161AEE7206800F05E
:102840007FFD2068416D41F0080141652068416DC0
:1028500021F00401416520682A69416D114311E0AE
:10286000206800F0A7FD2068416D41F400614165DA
:102870002068416D21F48061416520682969426DBD
:1028800042EA0121416588E710B5040003D094F8BD
:102890003D0010B107E0012010BD002084F83C008D
:1028A000204600F023F8022084F83D002068211D16
:1028B00000F02EFB012084F8480084F83E0084F8E4
:1028C0003F0084F8400084F8410084F8420084F816
:1028D000430084F8440084F8450084F8460084F8F6
:1028E000470084F83D00002010BD0000F8B51549F0
:1028F00005460068884223D11348016841F002016F
:10290000016000684FF4005C11494FF4807E0F4C69
:1029100000F00200009000200E15CF1484E8C15092
:1029200060611822A061A4F10C000C3C402384E8F3
:102930000E00FEF7ADFC08B1FDF7E3FFAC62A56346
:10294000F8BD000000040040E84402580C020024D6
:10295000580002400148042100F016B9B4010024D7
:10296000704700002DE9F0410D00174604464FF076
:10297000000610D0042D15D0082D1AD00C2D1FD014
:10298000102D24D094F84300022827D094F8430057
:10299000012826D07DE094F83E0002281ED094F84D
:1029A0003E00F5E794F83F00022817D094F83F0066
:1029B000EEE794F84000022810D094F84000E7E7D2
:1029C00094F84100022809D094F84100E0E794F817
:1029D0004200022802D094F84200D9E70220BDE864
:1029E000F081A7B39BB359494FF00200584ADFF872
:1029F00064C155B1042D19D0082D29D00C2D38D023
:102A0000102D48D084F8430047E084F83E00606A07
:102A1000C1633946606A0264606AC0F84CC02268CB
:102A2000606A3432FEF712FE88B938E084F83F005D
:102A3000A06AC1633946A06A0264A06AC0F84CC0AB
:102A40002268A06A3832FEF701FE00B92CE020E0CF
:102A500084F84000E06AC1633946E06A0264E06AD3
:102A6000C0F84CC02268E06A3C32FEF7EFFD80B946
:102A70001FE084F84100206BC1633946206B02647B
:102A8000206BC0F84CC02268206B4032FEF7DEFDA0
:102A9000A0B10120A3E784F84200012654E0206899
:102AA000C16841F400710DE02068C16841F48061A3
:102AB00008E02068C16841F4006103E02068C16853
:102AC00041F48051C16020680122294600F090FA4B
:102AD00021492068214A224B884209D0904207D0E0
:102AE000984205D01F4DA84202D01F4DA84203D1E5
:102AF000456C45F4004545642068884218D0B0F123
:102B0000804F15D01949884212D0194988420FD0F8
:102B1000184988420CD090420AD01749884207D001
:102B2000984205D01549884202D01549884207D1FC
:102B30008168144A1140062906D0B1F5803F03D0C0
:102B4000016841F001010160304648E70B300008A0
:102B500069300008A1300008000001400004014075
:102B60000040014000440140004801400004004092
:102B700000080040000C00400018004000E0004049
:102B800000E400400700010070B50D0004464FF05E
:102B9000000607D0042D0CD0082D11D00C2D16D016
:102BA000012656E02068C16821F40071C160606AA6
:102BB00013E02068C16821F48061C160A06A0CE064
:102BC0002068C16821F40061C160E06A05E0206806
:102BD000C16821F48051C160206BFDF7A3FE20681D
:102BE0000022294600F004FA41F21111214B20681D
:102BF0008A1098420BD0204B984208D01F4B984225
:102C000005D01F4B984202D01E4B984209D1036A4F
:102C10000B4206D1036A134203D1436C23F40043F1
:102C200043642068036A0B4206D1016A114203D152
:102C3000016821F0010101604FF001005DB1042D38
:102C40000CD0082D0DD00C2D0ED0102D0FD084F8E7
:102C50004300304670BD84F83E00FAE784F83F0038
:102C6000F7E784F84000F4E784F84100F1E784F8DE
:102C70004200EEE700000140000401400040014036
:102C80000044014000480140FEE70000094808B543
:102C9000016841F00101016000680022114600F066
:102CA000010000900E20FFF70BF8BDE808400E2051
:102CB000FEF7F8BFD844025830B587B014216846F3
:102CC000FDF798FB1648016841F0040101600168B6
:102CD00001F004010591016841F080010160016883
:102CE00001F080010591016841F001010160006877
:102CF0004FF420440B4D012200F0010021460590C5
:102D00002846FEF711FF002100940120CDE90101C2
:102D1000284603916946FEF7F9FD07B030BD000073
:102D2000E04402580008025810B58AB000246846F2
:102D30001C21079408940994FDF75CFB154840F2A8
:102D40002B11134AC0E90024C0E9024104618461E7
:102D5000FFF79AFD08B1FDF7D4FD0E4807A90794C7
:102D60000994FFF779FC08B1FDF7CBFD60206946B7
:102D7000CDE900040748042202940494FFF7F2FC12
:102D800008B1FDF7BEFD0348FFF7C4FC0AB010BD53
:102D900000040040B4010024FEE7FEE770477047DE
:102DA000FEF7CEBE30B59DB04C216846FDF722FB44
:102DB000202113A8FDF71EFB0220FEF7B3FF1D48DC
:102DC000016821F4404101600168002401F44041A0
:102DD0001B9101688904FCD502200A9028230990E0
:102DE000C20301210C25CDE90012CDE90B03CDE989
:102DF0000D10CDE910540F9068461294FFF786F934
:102E000008B172B6FEE740201A9008230501CDE90B
:102E1000163013ABCDE918053F21032283E81600D5
:102E200013A81146FEF7A8FF002801D072B6FEE7EE
:102E30001DB030BD184802582D48F0B52D4A016824
:102E400041F470010160106800F00F00072804D2FF
:102E5000106820F00F00C01D106027490020264C8C
:102E600010340B68254D43F001030B6020600B68A4
:102E70002B400B60136803F00F03072B04D9136872
:102E800023F00F03DB1D13601B4C1D4A18341D4B30
:102E9000261D371D2060184C1B4D28343060261D20
:102EA0003860371D23603B1D35601C1D3A60251DB1
:102EB0002E1D1860331D22602860326018600B6878
:102EC0000D4A0D4C23F48023D4320B606034206013
:102ED0001068C0040BD4136843F2D2000B4943F4CA
:102EE000805313600860106820F480501060F0BDBB
:102EF00088ED00E000200052004402587FEDF6EA21
:102F000080020101000202020000FF0100400052A5
:102F10002DE9F0472C4B4FF0804A2C4D0268984227
:102F20002B4E2C4F2C4C09D0504507D0A84205D031
:102F3000B04203D0B84201D0A04205D1D1F804C0BC
:102F400022F070024CEA0202DFF890C0DFF89080B5
:102F50009842DFF8909015D0504513D0A84211D078
:102F6000B0420FD0B8420DD0A0420BD0604509D07E
:102F7000404507D0484505D01B4DA84202D01B4D07
:102F8000A84203D1CD6822F440722A438E684D696D
:102F900022F08002C6620E682A439842866207D0F9
:102FA000A04205D0604503D0404501D0484501D13D
:102FB000096901630368012143F00403036041616F
:102FC0000260BDE8F08700000000014000040040FE
:102FD00000080040000C0040000401400040014097
:102FE000004401400048014000E0004000E400408F
:102FF00010B5046A012301F01F018B409C43046259
:103000008A40016A1143016210BD10B5846B012131
:10301000626A824205D12177C069F8B984F83E100E
:103020001CE0A26A824206D102222277C069A8B9B6
:1030300084F83F1012E0E26A824206D1042222772D
:10304000C06958B984F8401008E0226B824205D16B
:1030500008222277C06908B984F841102046FFF79A
:1030600079FC0020207710BD10B5846B616A814225
:1030700001D101200DE0A16A814201D1022008E0C6
:10308000E16A814201D1042003E0216B814201D138
:10309000082020772046FFF763FC0020207710BD32
:1030A00010B5846B0121626A824203D1217784F8D2
:1030B0003E1019E0A26A824204D10220207784F8EF
:1030C0003F1011E0E26A824204D10420207784F8A4
:1030D000401009E0226B824204D10820207784F856
:1030E000411001E084F83D102046FFF711FB00205D
:1030F000207710BD2DE9F04FDFF88480214EDFF8F6
:103100008890DFF888B0026A036AB042DFF880A0D6
:1031100022F0020C1F4F23F001020262426885690F
:103120008B680C6805EA080525F0030543EA0C03E3
:1031300044EA050407D0484505D0584503D050451A
:1031400001D0B84205D1CD6823F008031D4325F016
:103150000403B04207D0484505D0584503D0504538
:1031600001D0B84205D122F44076D1E90552354369
:103170002A4342608461496841630362BDE8F08F7D
:103180008FFFFEFF000001400004014000400140AD
:103190000044014000480140F0B5DFF87CE01F4CDE
:1031A0001F4D026A036AA04222F0200623F010039A
:1031B000036242688369D1F808C00F6803EA0E030E
:1031C00023F4407E46EA0C134EEA072601D0A842BB
:1031D00006D1CF6823F0800343EA071323F04003AE
:1031E000A0420AD0A84208D00E4CA04205D00E4CF6
:1031F000A04202D00D4CA04207D1D1E9054522F4EE
:10320000406242EA840242EA85024260866149687D
:1032100081630362F0BD0000FF8FFFFE00000140EC
:1032200000040140004001400044014000480140CA
:10323000F0B5DFF87CE01F4D1F4E026A036AA8421A
:1032400022F4007723F4807303624368C269D1F8E3
:1032500008C002EA0E020C6822F0030E47EA0C22B4
:1032600044EA0E0401D0B04206D1CF6822F40062D5
:1032700042EA072222F48062A8420AD0B04208D073
:103280000E4DA84205D00E4DA84202D00D4DA842C9
:1032900007D1D1E9055623F4405343EA051343EA25
:1032A00006134360C4614968C1630262F0BD000057
:1032B0008FFFFEFF0000014000040140004001407C
:1032C0000044014000480140F0B5046A026A22F45B
:1032D000805202624268C36924F40054DFF848C097
:1032E0008E680D6803EA0C03104F23F4407344EA20
:1032F0000634B84243EA05230BD00D4DA84208D04E
:103300000C4DA84205D00C4DA84202D00B4DA8424E
:1033100004D14D6922F4804242EA85124260C361C1
:10332000496801640462F0BDFF8FFFFE00000140A8
:1033300000040140004001400044014000480140B9
:10334000F0B5164F164B026A046A984222F4003513
:1033500024F4803303624268436D0E890C6803EAEB
:10336000070344EA030445EA06430BD00D4DA84287
:1033700008D00D4DA84205D00C4DA84202D00C4DEE
:10338000A84204D14D6922F4803242EA052242600B
:103390004465496881650362F0BD00008FFFFEFF50
:1033A0000000014000040140004001400044014091
:1033B00000480140F0B5164F164B026A046A984265
:1033C00024F48013036222F400144268436D0E89D2
:1033D0000D6803EA070344EA065443EA05230BD0C9
:1033E0000D4DA84208D00D4DA84205D00C4DA84265
:1033F00002D00C4DA84204D14D6922F4802242EA49
:103400008522426043654968C1650462F0BD0000E1
:10341000FF8FFFFE0000014000040140004001401A
:103420000044014000480140FEE7090700284FEA38
:10343000116104DB00F1E02080F80014704700F017
:103440000F0000F1E02080F8141D70471FB5002424
:103450000094019402940394FEF7F6FB01208DF88A
:103460000C001F218DF8081087228DF809208DF897
:103470000D008DF8000068468DF80A408DF80E406A
:103480008DF8014001948DF80B408DF80F40FEF748
:10349000ADFB0420FEF7E6FBFEF75AFBFFF782FCCC
:1034A000FFF70AFCFFF7F2FBFFF73EFC4FF4005476
:1034B000154D4FF4FA77A600214601222846FEF763
:1034C00033FB012231462846FEF72EFB0F4A6823C4
:1034D0000F480421FFF746FA3846FEF705FA0B4A73
:1034E00068230B480421D032FFF73CFA0022214622
:1034F0002846FEF719FB002231462846FEF714FB4A
:103500003846FEF7F1F9D7E700080258000000241A
:10351000B40100244FF04070E1EE100A704700063D
:10352000101600061016000000000102030401023C
:1035300003040607080900005835000800000024AD
:10354000B40100000803000874350008B401002429
:10355000240700006403000801A0DAC7020A1D6303
:103560000201A0091EC0E902320182102C90D00392
:043570000400000053
:04000005080002CD20
:00000001FF
